:020000040800F2
:100000007807002089010008EB140008BB130008E2
:10001000E91400088F0200086D1C000800000000B1
:100020000000000000000000000000001D1A000891
:100030009D02000800000000ED1400081F1A0008CF
:10004000A3010008A3010008A3010008A301000800
:10005000A3010008A3010008A3010008A3010008F0
:10006000A3010008A3010008A3010008A3010008E0
:10007000A301000891020008A3010008A3010008E1
:10008000A3010008A3010008A3010008A3010008C0
:10009000A3010008A3010008A3010008A3010008B0
:1000A000A3010008A3010008A3010008A3010008A0
:1000B000A3010008A3010008A3010008A301000890
:1000C000A3010008A3010008A3010008A301000880
:1000D000A3010008611C0008A3010008A301000897
:1000E000A3010008A3010008A301000800F002F822
:1000F00000F03AF80AA090E8000C82448344AAF188
:100100000107DA4501D100F02FF8AFF2090EBAE885
:100110000F0013F0010F18BFFB1A43F0010318473B
:10012000C42C0000E42C0000103A24BF78C878C129
:10013000FAD8520724BF30C830C144BF04680C60ED
:10014000704700000023002400250026103A28BF35
:1001500078C1FBD8520728BF30C148BF0B60704739
:100160001FB51FBD10B510BD00F058F81146FFF7C0
:10017000F7FF01F037FE00F076F803B4FFF7F2FF67
:1001800003BC00F07DF8000009488047094800479B
:10019000FEE7FEE7FEE7FEE7FEE7FEE7FEE7FEE737
:1001A000FEE7FEE704480549054A064B7047000094
:1001B000791A0008ED000008780100207807002077
:1001C00078030020780300204FF0000200B51346AA
:1001D00094469646203922BFA0E80C50A0E80C5067
:1001E000B1F12001BFF4F7AF090728BFA0E80C5018
:1001F00048BF0CC05DF804EB890028BF40F8042B11
:1002000008BF704748BF20F8022B11F0804F18BF7D
:1002100000F8012B7047704770477047754600F033
:100220002BF8AE4605006946534620F00700854688
:1002300018B020B5FFF7B6FFBDE820404FF000062C
:100240004FF000074FF000084FF0000B21F00701BE
:10025000AC46ACE8C009ACE8C009ACE8C009ACE801
:10026000C0098D46704710B50446AFF300802046A4
:10027000BDE81040FFF781BF00487047140100201F
:1002800001491820ABBEFEE7260002007047FEE7DA
:10029000014800F075B80000D0000020704772B629
:1002A000FEE710B590F821100022022905D00421A4
:1002B000816380F82020012010BD01680B6823F0C5
:1002C0000E030B6001680B6823F001030B6090F8CC
:1002D0004030C46B012101FA03F3636080F8211000
:1002E00080F82020104610BD10B590F82110002491
:1002F000022903D00421816301243DE001680A68DA
:1003000022F00E020A6001680A6822F001020A6007
:100310001A4A0168914201D1012121E0174A1432A1
:10032000914201D110211BE0144A2832914201D19F
:10033000891515E0114A3C32914201D189140FE030
:100340000E4A5032914202D14FF4803108E00B4AFC
:100350006432914202D14FF4801101E04FF080717C
:10036000064A083A5160012180F82110002180F8E6
:100370002010416B01B18847204610BD08000240A3
:100380002DE9F05FC16B0C6801680B68D0F840C0C4
:10039000042202FA0CF2494DDFF824A1494E4A4FDB
:1003A000DFF828B1DFF828E122422CD05A072AD5FD
:1003B0000A68920603D40A6822F004020A600168FF
:1003C000A94201D1042219E0514501D1402215E092
:1003D000B14202D14FF4806210E0B94202D14FF431
:1003E00080420BE0594502D14FF4802206E071456E
:1003F00002D14FF4800201E04FF080622F490839AA
:100400004A60C16A3BE04FF0020808FA0CF818EAAB
:10041000040F4FF000094FF0010235D05FEA8378F6
:1004200032D50B689B0605D40B6823F00A030B60DA
:1004300080F821200168A94201D1022219E051452A
:1004400001D1202215E0B14202D14FF4007210E038
:10045000B94202D14FF400520BE0594502D14FF49A
:10046000003206E0714502D14FF4001201E04FF076
:100470000072124908394A6080F82090816A002988
:100480001AD0BDE8F05F0847082505FA0CF52542AB
:1004900012D01B0710D50B6823F00E030B6090F8E9
:1004A0004010C36B02FA01F15960826380F8212089
:1004B00080F82090016BE2E7BDE8F09F0800024061
:1004C0001C0002403000024044000240580002403C
:1004D0006C00024030B528B308C8134914221944EF
:1004E000B1FBF2F18900C1631049816302214177B8
:1004F0001A6843F6F0718A43D0E900142143D0E929
:1005000002452C4321430469214344692143846902
:100510002143114319600021416301224277017791
:10052000084630BD012030BDF8FFFDBF000002408D
:100530002DE9F84FDFF8B891002409F1040A0AF117
:10054000040B23460F270BF1040EC9E00125A5403B
:100550002A40AA427DD1674ED1F804C0ACEB060810
:10056000B44532D014DCBCF1030F3AD009DCBCF145
:10057000000F2AD0BCF1010F1CD0BCF1020F31D109
:100580001DE0BCF1110F17D0BCF1120F2AD119E0F8
:10059000B8F5881F19D006DCB8F5803F15D0B8F53E
:1005A000801F1FD111E0B8F5001F0ED0B8F5041F51
:1005B00018D10AE0CB6815E0CB681B1D12E0CB68B0
:1005C00008330FE0CB680C330CE08B682BB1012BA8
:1005D0004FF0080303D0456104E0042302E0056105
:1005E00000E00023FF2A01D8064601E000F10406DE
:1005F0004FEA840501D9A5F12005D6F8008007FA55
:1006000005FC28EA0C0803FA05F548EA0508C6F8CF
:1006100000804D68ED0062D5374DAE6946F00106A9
:10062000AE61AD6924F0030605F001050095334D78
:1006300006EB050CDCF80850A607360F07FA06F89B
:1006400025EA0805DFF8B880404503D14FF00008DF
:1006500017E044E0DFF8AC80404502D14FF00108DC
:100660000FE0DFF8A480404502D14FF0020808E017
:10067000DFF89880404502D14FF0030801E04FF0C9
:10068000040808FA06F848EA0508CCF808804D681E
:10069000D9F80060ED034D4601D5164300E09643BE
:1006A0002E604D68DAF80060AD03554601D516435B
:1006B00000E096432E604D68DBF80060ED025D4679
:1006C00001D5164300E096432E604D68DEF80060C9
:1006D000AD02754601D5164300E096432E60641CBA
:1006E0000D682A46E5407FF431AFBDE8F88F000081
:1006F0000004014000001110001002400000014001
:1007000000080140000C01400010014000140140AD
:100710000AB1016170470904FBE7000001488068E5
:1007200070470000100000200248816802781144E0
:100730008160704710000020074810B5016841F043
:1007400010010160032000F075F80F2000F006F89A
:1007500000F024F8002010BD0020024070B50D4DBF
:1007600004464FF47A712878B1FBF0F00A49096821
:10077000B1FBF0F000F049FC48B9102C07D2002280
:100780002146501E00F036F800206C6070BD01203C
:1007900070BD0000100000201C0000200C4808B5AF
:1007A000816941F001018161816901F001010091DC
:1007B000C16941F08051C161C06900F08050009072
:1007C0000448416821F0E06141F00071416008BDDA
:1007D0000010024000000140002809DB00F01F0269
:1007E000012191404009800000F1E020C0F8001193
:1007F00070470000F0B40E4B1B680C46C3F3022395
:10080000C3F10705042D00D90425191D072901D2BC
:10081000002300E0DB1E012606FA05F1491E2140F7
:1008200099409E40761E16403143F0BC01F01FBA3D
:100830000CED00E0064900F0070208684FF6FF03E0
:10084000184040EA0220034A104308607047000045
:100850000CED00E00000FA052DE9F0470F46050019
:1008600061D0434E306800F00700B84209D23068CA
:1008700020F0070038433060306800F00700B842CD
:1008800051D128683B4C810712D5400703D56068D9
:1008900040F4E06060602878000703D5606840F4A9
:1008A000605060606068A96820F0F00008436060F4
:1008B0002878C00728D06868012810D0216802284D
:1008C00010D0890700292EDA616821F00301014365
:1008D0006160FFF723FF804641F288390DE021680F
:1008E0008903EFE78901EDE7FFF718FFA0EB0801A7
:1008F000494502D90320BDE8F0876068696800F0C7
:100900000C00B0EB810FEFD1306800F00700B84267
:100910000BD9306820F0070038433060306800F0B1
:100920000700B84201D00120E5E72878400705D547
:100930006068E96820F4E060084360602878000798
:1009400006D56068296920F4605040EAC100606003
:1009500000F038F86168084AC1F30311515CC840DF
:100960000649086006480068FFF7F8FE0020C2E765
:100970000020024000100240CB2D00081C00002087
:10098000140000200448054900684968044AC1F37E
:100990000221515CC84070471C000020001002403A
:1009A000DB2D00080448054900684968044AC1F382
:1009B000C221515CC84070471C000020001002405A
:1009C000DB2D000812A185B00FC98DE80F0014A01F
:1009D000144A006804905168134801F00C03042B7A
:1009E00010D0082B0ED1C1F38343C9031DF80300B7
:1009F0000AD5516804AAC1F34041515C0A4A5043E8
:100A0000B0FBF1F005B0704708494843FAE7000031
:100A100002030405060708090A0B0C0D0E0F10103F
:100A2000010200000010024000127A0000093D009F
:100A30002DE9F84F040070D02078C04DC00749D090
:100A40006868C0F38100012807D06868C0F381009E
:100A5000022809D16868C00306D52868800339D503
:100A600060680028E7D035E06068B0F5803F0BD0C3
:100A700010B1B0F5A02F11D0286820F48030286084
:100A8000286820F4802002E0286840F48030286044
:100A9000606890B1FFF742FE06460AE0286840F41D
:100AA00080202860F0E700BFFFF738FE801B642835
:100AB00073D828688003F7D50CE0FFF72FFE0646B1
:100AC00005E000BFFFF72AFE801B6428F0D82868E5
:100AD0008003F7D420789A4E80074FF001094FF039
:100AE000000839D5686810F00C0F07D06868C0F3AB
:100AF0008100022809D16868C00306D428688007ED
:100B000014D52069012808D110E02069B0B1C6F8D9
:100B10000090FFF703FE074605E00AE1FFF7FEFD40
:100B2000C01B0228C4D828688007F7D528686169E7
:100B300020F0F80040EAC10028600DE0C6F800800F
:100B4000FFF7ECFD074604E0FFF7E8FDC01B0228B5
:100B500023D828688007F7D4207800072CD5794857
:100B6000A169D9B1C0F80090FFF7D8FD074604E0AD
:100B7000FFF7D4FDC01B02280FD8686A8007F7D59D
:100B800071484FF4FA510068B0FBF1F0009000BFDB
:100B90000098411E0091FAD20EE080E0C0F800807B
:100BA000FFF7BCFD074604E0FFF7B8FDC01B0228B5
:100BB00075D8686A8007F7D42078400760D5E8695F
:100BC0000027C00008D4E86940F08050E861E86977
:100BD000012700F0805000905C480168C90513D4DB
:100BE0000168834641F480710160FFF797FD8246FA
:100BF00006E000BFFFF792FDA0EB0A0064284ED884
:100C0000DBF80000C005F5D5E06801280AD008B17E
:100C1000052813D0286A20F001002862286A20F0F5
:100C2000040002E0286A40F001002862E06841F216
:100C3000883B98B1FFF772FD82460BE0286A40F0CE
:100C400004002862EEE700BFFFF768FDA0EB0A0191
:100C500059455AD8286A8007F6D50CE0FFF75EFDA3
:100C6000824605E0FFF75AFDA0EB0A0159454CD832
:100C7000286A8007F6D41FB1E86920F08050E86147
:100C8000E06988B36968C1F38101022944D0022870
:100C9000C6F8608004D0FFF741FD044638E034E038
:100CA000FFF73CFD074604E0FFF738FDC01B0228B4
:100CB0002BD828688001F7D4206AB0F5803F05D191
:100CC0006868A16820F4003008436860D4E908012E
:100CD0000843696821F4741108436860C6F860909D
:100CE000FFF71CFD044606E025E000BFFFF716FDF8
:100CF000001B022809D828688001F7D51BE000BF37
:100D0000FFF70CFD001B022802D90320BDE8F88F75
:100D100028688001F4D40EE00128F7D06868226AC0
:100D200000F48031914204D1616A00F4701088426D
:100D300001D00120EAE70020E8E7000000100240AF
:100D400000004242800442421C000020007000402B
:100D500070B5040009D0606A002540B12561656165
:100D6000A56294F8510040B10CE0012070BD6068AC
:100D7000B0F5827FF4D0E561F2E784F85050204668
:100D800000F040F8022084F851002068016821F04A
:100D900040010160A088218900F4827001F40441BF
:100DA0000843A18901F400610843217C01F002019C
:100DB0000843217D01F001010843218B01F40071FA
:100DC0000843217F01F03801084394F8201001F016
:100DD00080010843218D01F4005108432168086017
:100DE000A069042101EA1040216848602068C169B7
:100DF00021F40061C1616565012084F85100002083
:100E000070BD000070B586B00025064600950195BE
:100E10000295039500681D49884235D11C498869AF
:100E200040F480508861886900F48050049088699B
:100E300040F0080088618869694600F00800049065
:100E40002820009002200190032003901148FFF712
:100E50006FFB1148416841F0E06141F001014160E0
:100E60000F4C0E4820601020C4E901058020C4E921
:100E700003056561A5612046E561FFF72BFB08B11D
:100E8000FFF70DFAB464666206B070BD0030014031
:100E900000100240000C0140000001403000024000
:100EA000D00000202DE9F84F044690F850000027AC
:100EB0001D461646894601280DD04FF0010B84F8D7
:100EC00050B0FFF72BFC804694F85100BA46012839
:100ED00004D0022793E00220BDE8F88FB9F1000F9B
:100EE00073D0002E71D0032084F85100C4F854A0B0
:100EF000C4F83090A686E686C4F838A0A4F83CA0D2
:100F0000A4F83EA0C4F844A0C4F840A0A068B0F57E
:100F1000004F09D12068016821F04001016020687C
:100F2000016841F48041016020680168490603D4EA
:100F3000016841F040010160E068B0F5006F606851
:100F400003D030B3012E24D041E008B1012E1CD1D2
:100F5000206B21680088C86006E0206881688907E6
:100F600009D5216B0988C160206B801C2063E08E4D
:100F7000401EE08609E0FFF7D1FBA0EB0800A84285
:100F800002D3681C01D031E07DB3E08E0028E4D1AB
:100F900020E0206B21680078087306E020688168F3
:100FA000890709D5216B09780173206B401C2063E8
:100FB000E08E401EE0860AE0FFF7B0FBA0EB0800E1
:100FC000A84203D3681C02D010E017E06DB1E08E98
:100FD0000028E3D142462946204600F088FA08B1AD
:100FE00020206065A06818B106E0FFE7032706E04F
:100FF0002068C16880680090606D00B1012784F8A6
:1010000051B084F850A0384666E710B5401EB0F1E4
:10101000807F01D3012010BD4FF0E02460610F21DB
:10102000601700F024FE0020A0610720206100204E
:1010300010BD704770470000F8B50268044610689C
:10104000D168536910F00F0F4FF0000553D003F033
:10105000010601F4907737435FD0C20705D0CA0577
:1010600003D5226C42F001022264420705D5DA075B
:1010700003D0226C42F002022264820705D5DA070F
:1010800003D0226C42F004022264020707D501F06B
:101090002002324303D0226C42F008022264226C08
:1010A000002A34D0800604D5880602D5204600F0F8
:1010B00004FD20684069216CC0F38010090700D44A
:1010C00030B3204600F0E1FC2068416949061BD599
:1010D000416921F040014161A06BA8B158494163C9
:1010E000A06BFFF701F9002811D0A06B416B01B094
:1010F000BDE8F040084783060FD58B060DD5204686
:10110000BDE8F84000F0D9BC2046FFF793FFF8BDDA
:101110002046FFF78FFF2564F8BD266B2023012EA4
:1011200052D1C60650D5CE064ED5106850680090F4
:10113000506940062AD5A16B086840680004000C7D
:10114000EAD0A68D8642E7D9E0858869202818D0A4
:10115000D06820F48070D0602068416921F00101DE
:1011600041612068416921F04001416184F83E30CD
:1011700025632068C16821F01001C160A06BFFF7F2
:1011800090F8A08DE18D401A81B219E0A08DE18D1B
:10119000401A81B2E08D0028BED00029BCD0D068B2
:1011A00020F49070D0602068426922F00102426110
:1011B00084F83E3025632068C26822F01002C260C5
:1011C0002046FFF736FFF8BD05062BD50D0629D5BD
:1011D00094F83D002128F6D1A068B0F5805F01D1D8
:1011E0002069B0B1206A411C216221680078486002
:1011F000E08C401E0004000CE084E4D12068C1684B
:1012000021F08001C1602068C16841F04001C160E7
:10121000F8BD206A0088C0F308005060206A801C76
:101220002062E5E74006F3D54806F1D5D1682046AF
:1012300021F04001D16084F83D3000F0BDF8F8BDE8
:101240007B1A000870B5040004D094F83D00002516
:1012500010B106E0012070BD84F83C50204600F03B
:1012600023F8242084F83D002068C16821F400514F
:10127000C160204600F07CFC2068016921F49041A7
:1012800001612068416921F02A0141612068C1683B
:1012900041F40051C1602564202084F83D0084F8A9
:1012A0003E00002070BD000030B585B000240094E1
:1012B0000194029403940068184988422CD118487C
:1012C000816941F480418161816901F48041049127
:1012D000816941F0040181618069124D00F00400D0
:1012E00004904FF4007000900220019003200390BE
:1012F00069462846FFF71CF92815CDE90004694620
:1013000028460294FFF714F9002211462520FFF722
:1013100071FA2520FFF760FA05B030BD00380140B2
:10132000001002400008014090F83E30202B0ED102
:1013300059B152B190F83C30012B08D0012380F80C
:101340003C300023036300F06FBC01207047022093
:101350007047000000681549884225D11448154B94
:10136000027841799954521C02700122312919D016
:10137000622911D0632911D0642911D00022782963
:1013800010D0792908D07A2908D0094909480122C2
:10139000491D4438FFF7C8BF8270F6E7C270F4E712
:1013A0000271F2E74270F0E7704700000038014038
:1013B00000000020BC0000207047FEE708B54FF099
:1013C000E0210A690092421C00D0401C0A69D20345
:1013D00000D5401E0028F9D108BD00002DE9F043DA
:1013E00085B000242D4800940194029403948169EF
:1013F00041F020018161816901F02001049181693E
:1014000041F004018161816901F004010491816965
:1014100041F0080181618069DFF8849000F00800E4
:101420000490002241F270014846FFF771F9DFF89D
:10143000748040F60107002239464046FFF768F9FC
:101440000122D1024846FFF763F90F2001258DE8FC
:10145000310069464846FFF76BF848F270000226F3
:10146000CDE90005CDE9024669464846FFF760F838
:1014700000970396CDE9015469464046FFF758F8B6
:101480004FF4C050CDE900050320CDE90240694684
:101490004846FFF74DF805B0BDE8F0830010024064
:1014A00000080140000C01400E4810B50C490160D5
:1014B0004FF482714160002102228160C0E9031271
:1014C0001202C0E90512C1610162416281620A2112
:1014D000C162FFF73DFC002801D072B6FEE710BDE7
:1014E0000030014020000020FEE7FEE7704738B5DD
:1014F0000B46009204460022802100F009F80028E3
:1015000004D0606D40F020006065032038BD00000D
:101510002DE9F8431E46914688460446089DFFF78C
:10152000FDF8401B351AFFF7F9F807462548006813
:10153000C0F3CB30684338E0701C37D0FFF7EEF8CB
:10154000C01BA84203D215B1009860B32CE02068FC
:10155000416821F0E00141606068B0F5827F0BD105
:10156000A068B0F5004F02D0B0F5806F04D12068BC
:10157000016821F040010160A06AB0F5005F09D167
:101580002068016821F4005101602068016841F47D
:1015900000510160012084F85100002084F85000BF
:1015A0000320BDE8F8830025401E00902068816874
:1015B00038EA010004D000214945BDD10020F0E700
:1015C0000121F9E71C0000202DE9F8430578441CAF
:1015D000DFF868804FF0FF392BE020788DF80000AD
:1015E000D8F8001041F00061C8F800104B46012205
:1015F00069461348FFF756FC6078A41C00F080078A
:1016000030F080060CD0D8F8001041F40061C8F822
:1016100000104B46324621460948FFF743FC34444C
:101620003FB114F8010BFF2801D14FF4FA70FFF716
:10163000C5FE6D1EEDB2D0D2BDE8F88310080140A2
:1016400020000020F8B51B4C0546206840F0004003
:101650002060EF2300211A46084600F08DF8164F4F
:10166000164B00214FEA152C05F0FF0E5FF000002D
:101670008DF800C08DF801E025686A4645F40065E4
:101680002560012512F8016BC7F80C6093F85160D2
:10169000032EFBD06D1EF5D2401C80B2F028E7D39C
:1016A000491C89B2F029E1D3206840F40040206051
:1016B000F8BD00001008014000300140200000206B
:1016C00010B5294C206840F00040206027490020D8
:1016D000C86027480222521ED2B2FCD290F8512094
:1016E000032AFBD00022CA600122521ED2B2FCD2D1
:1016F00090F85120032AFBD00022CA600122521E1A
:10170000D2B2FCD290F85120032AFBD00022CA604A
:101710000122521ED2B2FCD290F85120032AFBD0F3
:101720000022CA600121491EC9B2FCD290F85110B2
:101730000329FBD0206840F0805020600A20FFF78A
:101740003DFE206840F4805020600A48FFF73CFFCF
:10175000022000F061F80A20FFF730FE206840F414
:101760000040206010BD0000100801400030014022
:1017700020000020A82D00083EB5002401948DF81B
:1017800005000294224C8DF809102A208DF80720BC
:101790008DF80B308DF80000206840F0006020606C
:1017A0004FF0FF352B46012269461A48FFF77AFBB6
:1017B000206840F4006020602B46042201A91548EF
:1017C000FFF770FB2B208DF80000206840F00060D0
:1017D00020602B46012269460E48FFF763FB206814
:1017E00040F4006020602B46042202A90948FFF75C
:1017F00059FB2C208DF80000206840F0006020602C
:101800002B46012269460348FFF74CFB3EBD000012
:10181000100801402000002038B505462B4C36202A
:101820008DF80000206840F0006020604FF0FF332A
:10183000012269462648FFF735FB264A2449A5B10F
:10184000012D22D0022D30D0032D0DD12368602030
:1018500043F400632360D0600120401EC0B2FCD27C
:1018600091F851000328FBD038BD2368C02043F411
:1018700000632360D0600120401EC0B2FCD200BFD4
:1018800091F851000328FBD038BD2368A02043F411
:1018900000632360D0600120401EC0B2FCD200BFB4
:1018A00091F851000328FBD038BD2368002043F491
:1018B00000632360D0600120401EC0B2FCD200BF94
:1018C00091F851000328FBD038BD000010080140FA
:1018D00020000020003001400FB44A1E2DE9F84FCF
:1018E0001D46C3F30724224493B2DDE90FBAEDB2DB
:1018F000421E2A4492B2FFF73FFF0023DFF8A49074
:10190000294E2A4848E00C990E9A203901FB0431EF
:1019100032F8117000213CE007FA01F212041CD5E4
:101920004FEA1B228DF800208DF801B0D9F8008015
:101930006A4648F40068C9F800804FF0010C00BF07
:1019400012F8018BC6F80C8090F85180B8F1030FA3
:10195000FAD0BCF1010CF3D21AE04FEA1A228DF84A
:1019600000208DF801A0D9F800806A4648F400688C
:10197000C9F800804FF0010C12F8018BC6F80C80FA
:1019800090F85180B8F1030FFAD0BCF1010CF3D2FA
:10199000491C8D42C0D85B1C9C42B4D8BDE8F80FEE
:1019A0005DF814FB100801400030014020000020C9
:1019B0002DE9FE4F184D0646DDE90DBA2868994617
:1019C0001446884640F000402860DFB21AE0B8199B
:1019D000F0280BD3C9F3072000EB08011FFA81F8A8
:1019E00000264044F02810D2202A0AD0CDE901BABE
:1019F0000C9800904B4641463046FFF76DFFB819F2
:101A000086B2641C2278002AE1D1286840F40040A4
:101A10002860BDE8FE8F0000100801407047FEF707
:101A200083BE30B58FB028216846FEF7CDFB142168
:101A30000AA8FEF7C9FB022501200490009510209A
:101A4000059000240004CDE9084007956846FEF79C
:101A5000EFFF08B172B6FEE70F200A90CDE90B54F4
:101A60000D9400210AA80E94FEF7F6FE002801D07E
:101A700072B6FEE70FB030BD704710B5406A002166
:101A8000C185C184FFF7D6FA10BD0168CA6822F487
:101A90009072CA6001684A6922F001024A61016BD2
:101AA000012904D10168CA6822F01002CA6020210D
:101AB00080F83E1000210163704708B590F83E1091
:101AC000222901D0022008BD82684FF480539A4237
:101AD00001D1016921B1816A9A421BD04AB10AE061
:101AE0000268816A5268C2F308020A80816A891C0E
:101AF00008E0026972B10268526802F07F020A705F
:101B0000816A491C8162C18D491E0904090CC18585
:101B100003D019E002685268F1E70168CA6822F050
:101B20002002CA600168CA6822F48072CA60016833
:101B30004A6922F001024A61202180F83E10016BBF
:101B4000012903D0FFF706FC002008BD0021016336
:101B50000168CA6822F01002CA6001680A68D206E9
:101B600002D50A6849680091818DFFF762FAEBE7B8
:101B700070B5044600680169E26821F440511143E0
:101B800001612169A0680843616908432168CA6846
:101B900041F20C639A430243CA6020684169A2691A
:101BA00021F44071114341611E492068884202D1ED
:101BB000FEF7F8FE01E0FEF7E5FE00EBC00101EBE9
:101BC0000012606864218000B2FBF0F3B3FBF1F314
:101BD0006FF018067343B2FBF0F5B2FBF0F605EBBD
:101BE0008305322303EB0515B5FBF1F5B6FBF1F6E2
:101BF00005F0F00505EB0615B2FBF0F6B2FBF0F0D0
:101C0000B0FBF1F06FF01802504306EB800003EBDD
:101C10000010B0FBF1F0216800F00F00284488604C
:101C200070BD00000038014081628285C2850021BC
:101C30000164222280F83E2080F83C100168CA68C6
:101C400042F48072CA6001684A6942F001024A6146
:101C50000068C16841F02001C160002070470000A9
:101C60000148FFF7E9B9000078000020FEE7090706
:101C7000090E002804DB00F1E02080F80014704712
:101C800000F00F0000F1E02080F8141D7047000004
:101C90002DE9F8430746504E2A208DF800003068A1
:101CA00040F0006030604FF0FF3843460122694643
:101CB0004A48FFF7F7F84A4D0020E860474C0220F9
:101CC000401EC0B2FCD200BF94F851000328FBD0E4
:101CD0000020E8600120401EC0B2FCD294F8510000
:101CE0000328FBD00020E8600120401EC0B2FCD2D7
:101CF00094F851000328FBD0F020E8600120401E3A
:101D0000C0B2FCD294F851000328FBD02B208DF8F0
:101D10000000306840F000603060434601226946B0
:101D20002E48FFF7BFF80020E8600120401EC0B237
:101D3000FCD200BF94F851000328FBD00020E860DB
:101D40000120401EC0B2FCD294F851000328FBD001
:101D50000120E860401EC0B2FCD200BF94F85100E0
:101D60000328FBD04020E8600120401EC0B2FCD216
:101D700094F851000328FBD02C208DF80000306827
:101D800040F0006030604346012269461348FFF787
:101D900089F800203A0A0021EA6001235B1EDBB2C9
:101DA000FCD200BF94F85130032BFBD0FBB2EB60A8
:101DB00001235B1EDBB2FCD294F85130032BFBD025
:101DC000491C89B2F029E7D3401C80B2F028E2D345
:101DD000BDE8F843FFF774BC100801402000002064
:101DE000003001400EB5FEF7A7FCFFF71AFEFFF723
:101DF000F5FA7248416941F00101416140690022F0
:101E000000F00100009011460D20FEF7F3FC0D20BC
:101E1000FEF7E2FCFFF748FB6A48694900250160CC
:101E20004FF4E131C0E901150C21C560C0E904514E
:101E30008561C561FFF706FA08B172B6FEE7FFF7E4
:101E40003FFC0020FFF7FEFB0020FFF721FF4FF6CD
:101E5000FF7A5D4CCDE901A5606800905BA25A2134
:101E60001E202368FFF7A4FD4FF6E079CDE9019528
:101E7000606800905AA278211E202368FFF798FD21
:101E800042F6123BCDE901B56068009059A2962157
:101E90001E202368FFF78CFD4FF4FC60CDE901059F
:101EA0006068009058A2B4211E202368FFF780FDCF
:101EB00040F66100CDE901056068009057A2D2218B
:101EC0001E202368FFF774FD594F40F6B8380122F1
:101ED000D60331463846FEF71BFC4046FFF76EFA44
:101EE000002231463846FEF713FC4046FFF766FAFB
:101EF000012250493348FFF717FA4E4E761F70788B
:101F000001280BD1307948B9CDE901A5606800906E
:101F100049A25A21AD202368FFF74AFDB078012875
:101F200009D1CDE901956068009043A27821AD20E8
:101F30002368FFF73DFDF07801280BD1307948B9CF
:101F4000CDE901B5606800903BA29621AD202368E1
:101F5000FFF72EFD307901280BD14FF4FC60CDE95D
:101F600001056068009035A2B421AD202368FFF719
:101F70001FFD707848B9CDE901A56068009031A2D5
:101F80005A21AD202368FFF713FDB07868B1F078CF
:101F900000289CD1CDE901B560680090236829A292
:101FA0009621AD20FFF704FD91E7CDE9019560682A
:101FB000009024A278212368F3E70000001002407B
:101FC0000038014078000020080000204465746556
:101FD0006374696F6E20203A204F4646000000006F
:101FE0005265636F676E6974696F6E3A204F46463B
:101FF0000000000045726F6C6C5F49442020203A5D
:10200000204F46460000000044656C6574655F49DA
:102010004420203A202D2D2D00000000466C6173D5
:10202000742020202020203A204F46460000000047
:1020300000080140050000204F4E20004F4B5F522A
:10204000535400004F4646200000000000000000EE
:102050000000000000000000000000000000000080
:102060000000000000000000000000000000000070
:102070000000000C000C000C000C000C000C000C0C
:10208000000C000C000C000C0000000C000C000008
:10209000000000000000001B001B001B001B001BB9
:1020A0000000000000000000000000000000000030
:1020B0000000000000000000000080198019801955
:1020C0008019C07FC07F80190033C07FC07F00337C
:1020D0000033003300330000000000000000001E49
:1020E000003F807580650074003C001E000780057D
:1020F000806580658075003F001E000400040000BC
:102100000000007000D840D8C0D880D90073000605
:10211000000C801BC036C066C046C00680030000AD
:10212000000000000000001E003F003300330033B9
:10213000001E000CC03CC066806380618063C03EAE
:10214000801C0000000000000000000C000C000CCF
:10215000000C000C00000000000000000000000067
:1021600000000000000000000000000080000001EE
:102170000003000600060004000C000C000C000C1C
:10218000000C000C000400060006000300018000A3
:10219000002000100018000C000C000400060006CF
:1021A00000060006000600060004000C000C0018E3
:1021B000001000200000000C002D003F001E003326
:1021C000000000000000000000000000000000000F
:1021D0000000000000000000000000000000000CF3
:1021E000000C000C000CC0FFC0FF000C000C000C29
:1021F000000C0000000000000000000000000000D3
:1022000000000000000000000000000000000000CE
:10221000000000000000000C000C00040004000896
:1022200000000000000000000000000000000000AE
:102230000000001E001E0000000000000000000062
:10224000000000000000000000000000000000008E
:102250000000000000000000000000000000000C72
:10226000000C000000000000000000030003000359
:102270000006000600060006000C000C000C000C16
:102280000018001800180000000000000000001EE8
:10229000003F0033806180618061806D806D80616E
:1022A000806180610033003F001E000000000000DC
:1022B00000000006000E001E003600260006000684
:1022C00000060006000600060006000600060000E4
:1022D000000000000000001E003F807380618061EC
:1022E000800100030006000C001800300060807FB1
:1022F000807F0000000000000000001C003E006322
:1023000000630003000E000E000380018001806165
:102310008073003F001E0000000000000000000667
:10232000000E000E001E001E00160036003600666D
:10233000807F807F0006000600060000000000008D
:102340000000007F007F006000600060006E007F82
:1023500080638001800180618073003F001E000067
:10236000000000000000001E003F8033806100601C
:10237000006E007F80738061806180618033003FE8
:10238000001E0000000000000000807F807F8001B0
:102390000003000300060006000C000C000C0008FF
:1023A0000018001800180000000000000000001EC7
:1023B000003F8063806180610021001E003F8061DA
:1023C000806180618061003F001E0000000000000D
:1023D0000000001E003F0073806180618061807397
:1023E000803F801D800180610073003F001E00005F
:1023F0000000000000000000000000000000000CD1
:10240000000C000000000000000000000000000CB4
:10241000000C0000000000000000000000000000B0
:1024200000000000000C000C000000000000000094
:102430000000000C000C0004000400080000000074
:102440000000000080008003000E003800600038AB
:10245000000E80038000000000000000000000006B
:1024600000000000000000000000807F807F00006E
:102470000000807F807F000000000000000000005E
:10248000000000000000000000000000004000709C
:10249000001C000780010007001C007000400000C5
:1024A00000000000000000000000001F803FC0711D
:1024B000C060C000C00180030007000E000C000CCB
:1024C0000000000C000C0000000000000000001ED6
:1024D000003F803180718063806F806D806D806F80
:1024E000806700600032003E001C00000000000019
:1024F0000000000E000E001B001B001B001B8031A3
:102500008031803F803F8031C060C060C06000008B
:10251000000000000000007C007E00630063006398
:102520000063007E007E0063806180618063007FC5
:10253000007E0000000000000000001E003F80310F
:102540008061006000600060006000600060806189
:102550008031003F001E0000000000000000007CF1
:10256000007F006380638061806180618061806141
:10257000806100630063007E007C000000000000BA
:102580000000807F807F0060006000600060007F4E
:10259000007F0060006000600060807F807F00003E
:1025A000000000000000807F807F0060006000600D
:1025B0000060007F007F00600060006000600060DD
:1025C00000600000000000000000001E003F80319D
:1025D0008061006000600060806380638061806172
:1025E0008031803F001E000000000000000080617C
:1025F00080618061806180618061807F807F806197
:102600008061806180618061806100000000000065
:102610000000003F003F000C000C000C000C000C00
:10262000000C000C000C000C000C003F003F0000F0
:102630000000000000008001800180018001800115
:102640008001800180018001806180618073003F92
:10265000001E0000000000000000C06080610063F8
:1026600000660066006C0078007C0066006600630F
:1026700080618061C0600000000000000000006018
:10268000006000600060006000600060006000604A
:10269000006000600060807F807F0000000000001C
:1026A0000000C071C071C07BC07AC06AC06AC06ED1
:1026B000C064C060C060C060C060C060C060000036
:1026C000000000000000807180718079807980793D
:1026D000806D806D806D80658067806780678063B6
:1026E00080630000000000000000001E003F003377
:1026F00080618061806180618061806180618061D2
:102700000033003F001E0000000000000000007EBB
:10271000007F80638061806180618063007F007ED4
:1027200000600060006000600060000000000000C9
:102730000000001E003F0033806180618061806185
:1027400080618061806580670033803F401E0000AB
:10275000000000000000007E007F806380618061D7
:102760008063007F007E006600630063806180619B
:10277000C0600000000000000000000E001F80315B
:10278000803100300038001E0007800380618061C6
:102790008031003F001E0000000000000000C0FF6C
:1027A000C0FF000C000C000C000C000C000C000C16
:1027B000000C000C000C000C000C000000000000DD
:1027C00000008061806180618061806180618061E2
:1027D00080618061806180618073003F001E000025
:1027E000000000000000C060C060C0608031803127
:1027F0008031001B001B001B001B000E000E000E92
:1028000000040000000000000000C0C0C0C0C0C044
:10281000C0C0C0C0C0CC804C804C805E8052805212
:102820008073806180610000000000000000C0C073
:10283000806080610033003B001E000C000C001E15
:10284000001F003B80718061C0C0000000000000DC
:102850000000C0C08061806100330033001E001E94
:10286000000C000C000C000C000C000C000C000014
:10287000000000000000803F803F80010003000353
:102880000006000C000C0018001800300060807F6B
:10289000807F000000000000000F000F000C000C03
:1028A000000C000C000C000C000C000C000C000CC8
:1028B000000C000C000C000C000F000F00000018B2
:1028C00000180018000C000C000C000C000600069C
:1028D00000060006000300030003000000000000E3
:1028E000001E001E00060006000600060006000688
:1028F00000060006000600060006000600060006A8
:10290000001E001E0000000C000C001E0012003310
:1029100000338061806100000000000000000000C2
:1029200000000000000000000000000000000000A7
:102930000000000000000000000000000000000097
:102940000000000000000000E0FF00000000003870
:102950000018000C00000000000000000000000053
:102960000000000000000000000000000000000067
:1029700000000000000000000000001F803F806198
:102980008001801F803F80618063807FC0380000AD
:102990000000000000000060006000600060006E49
:1029A000007F807380618061806180618073007FBF
:1029B000006E0000000000000000000000000000A9
:1029C0000000001E003F8073806100600060806135
:1029D0008073003F001E0000000000000000800126
:1029E000800180018001801D803F80738061806153
:1029F000806180618073803F801D000000000000C6
:102A000000000000000000000000001E003F0073F6
:102A10008061807F807F00608071003F001E000029
:102A2000000000000000C007C00F000C000C807FF9
:102A3000807F000C000C000C000C000C000C000C43
:102A4000000C00000000000000000000000000007A
:102A5000801D803F807380618061806180618073B0
:102A6000803F801D80018063007F003E0000006089
:102A7000006000600060006F807F80718061806115
:102A800080618061806180618061000000000000E1
:102A900000000006000600000000003E003E0006A8
:102AA00000060006000600060006000600060000FC
:102AB000000000000006000600000000003E003E8E
:102AC00000060006000600060006000600060006D6
:102AD00000060046007E003C0000006000600060D0
:102AE0000060806100630066006C007C007600631B
:102AF00000638061C0600000000000000000003E34
:102B0000003E00060006000600060006000600065D
:102B10000006000600060006000600000000000097
:102B20000000000000000000000080DDC0FFC0CEFB
:102B3000C0CCC0CCC0CCC0CCC0CCC0CCC0CC0000C1
:102B40000000000000000000000000000000006F16
:102B5000807F80718061806180618061806180613F
:102B60008061000000000000000000000000000084
:102B70000000001E003F8073806180618061806181
:102B80008073003F001E00000000000000000000F5
:102B900000000000006E007F8073806180618061B2
:102BA00080618073007F006E0060006000600060E4
:102BB0000000000000000000801D803F80738061E5
:102BC0008061806180618073803F801D8001800111
:102BD000800180010000000000000000000000678C
:102BE000803F0039003000300030003000300030CD
:102BF00000300000000000000000000000000000A5
:102C00000000001E803F80610060007F803F8001E7
:102C10008061007F001E0000000000000000000036
:102C2000000800180018007F007F00180018001826
:102C3000001800180018801F800F0000000000001E
:102C400000000000000000000000806180618061E1
:102C500080618061806180618063807F803D000051
:102C60000000000000000000000000000000C06044
:102C7000803180318031001B001B001B000E000ED4
:102C8000000600000000000000000000000000003E
:102C9000000080DD80DD80DD0055005500550077A7
:102CA0000077002200220000000000000000000069
:102CB000000000000000806100330033001E000CA3
:102CC000000C001E00330033806100000000000093
:102CD000000000000000000080618061803100334E
:102CE0000033001B001B001B000E000E000E001C1A
:102CF000007C007000000000000000000000C07FA9
:102D0000C07F800100030006000C00180030C07F67
:102D1000C07F00000000000080038007000600065E
:102D2000000600060006000E001C001C000E000637
:102D30000006000600060006800780030006000665
:102D40000006000600060006000600060006000653
:102D50000006000600060006000600060006000643
:102D60000038003C000C000C000C000C000C000EA5
:102D700000070007000E000C000C000C000C000CFB
:102D8000003C0038000000000000000000000000CF
:102D900000008038807F0047000000000000000035
:102DA00000000000000000000901809611800A3A2E
:102DB00081550A3601002A04000000F02B040000AF
:102DC00000F021800A13800A29800A000000000018
:102DD00000000001020304060708090000000001CA
:102DE00002030400042E0008000000202000000060
:102DF00028010008242E00082000002058070000A9
:102E00004401000800000000000000000B12000058
:102E10004C2000080100000010000000000000002D
:042E20000024F40096
:04000005080000ED02
:00000001FF
